:100000002BC045C024C87BC842C041C040C03FC0CF
:100010003EC03DC03CC0C7C83AC039C038C045C664
:100020008CC6000000000004030201000000010271
:1000300004081020408004020108010101010101AF
:1000400001010202020200003900360000003B00FC
:10005000380000003A00370011241FBECFE5D2E07F
:10006000DEBFCDBF10E0A0E6B0E0E0ECF4E102C0FE
:1000700005900D92A63BB107D9F720E0A6EBB0E0C2
:1000800001C01D92AE3FB207E1F774D817CAB8CFCE
:10009000CF938AE0D3D9C82F82E0D0D99091BE0007
:1000A000990F990F982B8C2F880F892B8093BE0066
:1000B0008091BE008B3409F07DC0809185009091C5
:1000C0008600019690938600809385008091990028
:1000D00090919A00892B79F02091850030918600CB
:1000E0008091990090919A002817390724F0109276
:1000F000860010928500809187009091880001967B
:100100009093880080938700809190009091910057
:10011000892BE9F020918D008091900090919100C1
:10012000820F911D8F3F910509F02CF497FF05C0B8
:1001300080E090E002C08FEF90E080938D0080918E
:100140008D006FEF70E0681B710988E097D880918F
:10015000920090919300892BE9F020918E0080917C
:10016000920090919300820F911D8F3F910509F0AD
:100170002CF497FF05C080E090E002C08FEF90E084
:1001800080938E0080918E006FEF70E0681B710984
:1001900087E074D88091940090919500892B09F4A0
:1001A000A0C020918F008091940090919500820FC3
:1001B000911D82C08091BE00873809F0A0C0809157
:1001C000850090918600019790938600809385002A
:1001D0008091990090919A00892B71F0809185000F
:1001E0009091860097FF08C08091990090919A00A5
:1001F000909386008093850080918700909188007D
:10020000019790938800809387008091900090914F
:100210009100892BF1F080918D0020919000309118
:10022000910090E0821B930B8F3F910509F02CF415
:1002300097FF05C080E090E002C08FEF90E08093D0
:100240008D0080918D006FEF70E0681B710988E070
:1002500015D88091920090919300892BF1F08091B4
:100260008E00209192003091930090E0821B930BBE
:100270008F3F910509F02CF497FF05C080E090E0D6
:1002800002C08FEF90E080938E0080918E006FEF20
:1002900070E0681B710987E0F1D78091940090911C
:1002A0009500892BF1F080918F002091940030917E
:1002B000950090E0821B930B8F3F910509F02CF481
:1002C00097FF05C080E090E002C08FEF90E0809340
:1002D0008F0080918F006FEF70E0681B710985E0DF
:1002E000CDD780918100816080938100A6D76093F3
:1002F000B6007093B7008093B8009093B900CF9187
:100300000895FF920F931F93CF93DF938C0187EC97
:1003100090E022D68093C000F12C01501109CF2D1E
:10032000D0E0C017D1070CF041C087EC90E014D6A4
:100330009091C0009E01290F311D2B313105A0F590
:100340009091C0002091C000AE01420F511DA091BC
:100350006300B0916400A40FB51FE0916100F091BB
:100360006200EC0FFD1FE90FF11D908190952C911B
:1003700092239C939091C0002091C000AE01420F47
:10038000511DE0916300F0916400E40FF51F20918E
:10039000610030916200C20FD31FC90FD11D988137
:1003A00089239081982B9083F394B9CF809160003A
:1003B000833061F48091810082FD08C080918100CA
:1003C00081FD04C08091810080FF09C081E080939D
:1003D000BF00DF91CF911F910F91FF90089560E0D2
:1003E00080E0F8D760E080E0B7D782E080936000DB
:1003F000EDCF0F931F938091B6009091B700A0911D
:10040000B800B091B900892B8A2B8B2B79F015D7C6
:100410000091B6001091B7002091B8003091B9005A
:10042000601B710B70938A00609389008091BA0001
:100430009091BB00A091BC00B091BD00892B8A2B8C
:100440008B2B79F0FAD60091BA001091BB00209165
:10045000BC003091BD00601B710B70938C006093E9
:100460008B009091C0008091C0004BE150E0491B8F
:1004700051096091630070916400680F711D87ECF1
:1004800090E01F910F9139C59091810082E08927FA
:100490008093810083E0D2D7892B71F48091810011
:1004A000846080938100C9D66093BA007093BB00CA
:1004B0008093BC009093BD0080916000823039F43D
:1004C0008091840081FF03C081E0809360000895E3
:1004D000CF93DF93EB01DCD78883CE01DF91CF91FF
:1004E00008950F931F93CF93DF938C01EB01D0D727
:1004F0008883C8010196CCD78983CE01DF91CF9143
:100500001F910F910895C4C7FF920F931F93CF932C
:10051000DF93EC01F62E08811981C801B9D7F816CE
:1005200019F06F2DC801BCD7CE01DF91CF911F917B
:100530000F91FF9008950F931F93CF93DF9300D0F7
:10054000CDB7DEB78B01FB0160819A838983CE0131
:100550000196DADFC8010F900F90DF91CF911F91C4
:100560000F910895EF92FF920F931F93CF93DF9314
:1005700000D0CDB7DEB78C017B01FB0160819A838F
:100580008983CE010196C0DFF70161810F5F1F4FA4
:100590001A830983CE010196B7DFC7010F900F9030
:1005A000DF91CF911F910F91FF90EF9008950F93DE
:1005B0001F93CF93DF9300D0CDB7DEB780E090E0FC
:1005C000A2DF80939800809198008F3F41F48FE3E1
:1005D000809398006091980080E090E061D78091CE
:1005E0009800883008F4D5C080919800883708F0CA
:1005F000D0C081E090E087DF809384008091840008
:100600008F3F41F483E0809384006091840081E017
:1006100090E046D782E090E076DF80938D00809175
:100620008D000FEF10E0B801681B710988E026D635
:1006300083E090E068DF80938E0080918E00B801A7
:10064000681B710987E01AD684E090E05CDF809334
:100650008F0080918F00B801681B710985E00ED66C
:1006600060E970E085E090E03CDFFC0180819181F1
:100670008091900090919100019681F410929100E8
:100680001092900080919000909191009A838983BC
:10069000BE016F5F7F4F85E090E064DF62E970E04C
:1006A00087E090E01EDFFC018081918180919200C3
:1006B00090919300019681F4109293001092920011
:1006C00080919200909193009A838983BE016F5F1D
:1006D0007F4F87E090E046DF64E970E089E090E0DA
:1006E00000DFFC01808191818091940090919500C0
:1006F000019681F4109295001092940080919400DC
:10070000909195009A838983BE016F5F7F4F89E046
:1007100090E028DF66E970E08BE090E0E2DEFC012B
:10072000808191818091960090919700019691F43B
:100730008AEF90E0909397008093960080919600C6
:10074000909197009A838983BE016F5F7F4F8BE002
:1007500090E008DF69E970E08DE090E0C2DEFC0126
:10076000808191818091990090919A000196D1F4B5
:1007700010929A00109299008091990090919A009D
:100780009A838983BE016F5F7F4F8DE090E0EADE40
:1007900009C08FE3809398006091980080E090E01A
:1007A0007FD627CF0F900F90DF91CF911F910F91A0
:1007B000089516B884E885BF80E885BF85B7877E31
:1007C00085BF85B7806285BF089587EC90E06DD3C3
:1007D00089E034D6019719F46091980001C06EE366
:1007E00087EC90E060D361E871E087EC90E0CFD3D4
:1007F00069EF71E087EC90E0CFC3CF93DF93CDB783
:10080000DEB72B970FB6F894DEBF0FBECDBF809139
:100810009800883008F426C180919800883708F045
:1008200021C1BE01655F7F4F80E090E051DE909175
:1008300098008B85981751F0809198008983BE01AC
:100840006F5F7F4F80E090E076DEBFDFBE01665FC6
:100850007F4F81E090E03CDE909184008A8598177C
:1008600049F0809184008983BE016F5F7F4F81E0F2
:1008700090E061DEBE01675F7F4F82E090E028DE9E
:1008800090918D008985981749F080918D0089831A
:10089000BE016F5F7F4F82E090E04DDE80918D0062
:1008A0006FEF70E0681B710988E0E8D4BE01675FF4
:1008B0007F4F83E090E00CDE90918E008985981741
:1008C00049F080918E008983BE016F5F7F4F83E086
:1008D00090E031DE80918E006FEF70E0681B71094F
:1008E00087E0CCD4BE01675F7F4F84E090E0F0DD0D
:1008F00090918F008985981749F080918F008983A6
:10090000BE016F5F7F4F84E090E015DE80918F0025
:100910006FEF70E0681B710985E0B0D4BE01695FBC
:100920007F4F85E090E0DDDD2091900030919100D7
:100930008F8198852817390761F0809190009091F8
:1009400091009A838983BE016F5F7F4F85E090E0BD
:1009500009DEBE01695F7F4F87E090E0C2DD209134
:100960009200309193008F8198852817390761F0A4
:1009700080919200909193009A838983BE016F5F6A
:100980007F4F87E090E0EEDDBE01695F7F4F89E039
:1009900090E0A7DD20919400309195008F8198859B
:1009A0002817390761F080919400909195009A83FF
:1009B0008983BE016F5F7F4F89E090E0D3DDBE0188
:1009C0006B5F7F4F8BE090E08CDD20919600309143
:1009D00097008D819E812817390761F080919600DC
:1009E000909197009A838983BE016F5F7F4F8BE060
:1009F00090E0B8DD8091890090918A00892B41F4C4
:100A00001092B6001092B7001092B8001092B90080
:100A100080918B0090918C00892B41F41092BA0048
:100A20001092BB001092BC001092BD00BE016D5F21
:100A30007F4F8DE090E055DD2091990030919A0034
:100A40008B819C812817390789F0809199009091BA
:100A50009A009A838983BE016F5F7F4F8DE090E09B
:100A600081DD04C08FE380939800DBCE2B960FB618
:100A7000F894DEBF0FBECDBFDF91CF9108950F93E5
:100A80001F9380916000823029F58091810080FF62
:100A900021C08091840080FF1DC0CFD30091B6009B
:100AA0001091B7002091B8003091B900E091960004
:100AB000F0919700AB01BC01401B510B620B730B13
:100AC000CF01A0E0B0E084179507A607B70710F4A0
:100AD00010926000809160008823A9F080916000EE
:100AE000813089F08091BF00813019F41092BF00ED
:100AF00084DE85B7806285BF889585B78F7D85BF89
:100B00001F910F91089561E080E026D460E080E0BD
:100B100061D483E080936000E5CFEF92FF920F9362
:100B20001F93CF93DF93D6D288E4E82E80E0F82E8F
:100B3000F092B400E092B3000FEC10E0F801818174
:100B400081608183C1EDD0E089818160898341E04A
:100B500061E081E027D252D2F092A800E092A70093
:100B6000F80180818460808388818460888340E08C
:100B700064E080E017D242D284E492E09093A60031
:100B80008093A500F80180818860808388818860D7
:100B9000888340E068E080E0DF91CF911F910F9162
:100BA000FF90EF90FFC162E089E0D6D361E088E07A
:100BB000D3D361E087E0D0D361E085E0CDD360E0BE
:100BC00083E0CAD360E082E0C7D360E08AE0C4D3A8
:100BD00060E080E0C1D3EDDDEADC9FDF1092B6007B
:100BE0001092B7001092B8001092B9001092BA009B
:100BF0001092BB001092BC001092BD00E6CD109286
:100C0000C3001092C4001092C1001092C200089557
:100C1000CF93C82FF4DFC093C6001092CE0010927D
:100C2000CD001092CC001092CB00DC9ADE9AD49AC0
:100C3000D69888EA8DB980EF8EB9CF910895D4986F
:100C4000D6981DB880EF8EB908959091C2009F5F2D
:100C50009F702091C1009217E1F3E92FF0E0E2517B
:100C6000FF4F80839093C20008959091C3008091BC
:100C7000C4009817E1F3E091C300EF5FEF70E093D9
:100C8000C300F0E0E252FF4F808108959091C300CD
:100C90008091C400891B8F7008959091C20080914B
:100CA000C1009F5F891B8F7008951F920F920FB62E
:100CB0000F9211240F931F932F933F934F935F93A2
:100CC0006F937F938F939F93AF93BF93CF93EF9344
:100CD000FF930091CB001091CC000115110561F03C
:100CE000C091C4008091C300C81731F0CFDF90E0FD
:100CF000F8010995C093C3001092C500D698CC9B0B
:100D000004C0CE9BFCCF88EA01C088EF8DB980EF8C
:100D10008EB9FF91EF91CF91BF91AF919F918F913C
:100D20007F916F915F914F913F912F911F910F9103
:100D30000F900FBE0F901F9018951F920F920FB635
:100D40000F9211240F931F932F933F934F935F9311
:100D50006F937F938F939F93AF93BF93CF93EF93B3
:100D6000FF938091C500823009F44CC028F4882399
:100D700059F0813051F183C0843009F449C010F139
:100D8000853009F464C07BC08FB1882331F08FB106
:100D900086959091C600891330C0789B0DC0E09174
:100DA000CD00F091CE00309729F08091C200809361
:100DB000C100099581E001C084E08093C5001FB89F
:100DC000D69A5BC08FB1811118C09091C1008091FB
:100DD000C200981791F08091C1008F5F8F7080934F
:100DE000C100E091C100F0E0E251FF4F80818FB976
:100DF00082E08093C500D69A03C0D69888EA8DB960
:100E000080E73CC083E08093C500D6981FB835C00A
:100E100085E08093C500D69880E78EB90091CB001D
:100E20001091CC000115110551F1C091C4008091C1
:100E3000C300C81721F18EB18E7AE9F3759B1FC0EC
:100E400025DF90E0F8010995C093C30018C084E045
:100E50008093C5009FB18091C4008F5F8F702091F7
:100E6000C300821749F08093C400E091C400F0E011
:100E7000E252FF4F9083A3CFD6988EE78EB9FF91B1
:100E8000EF91CF91BF91AF919F918F917F916F9192
:100E90005F914F913F912F911F910F910F900FBE36
:100EA0000F901F901895862FB3CEC9CECF93809107
:100EB000C8008823C1F08091C900803218F080E01A
:100EC00090E019C08091CA00E0919B00F0919C00D5
:100ED000E80FF11D60838091CA008F5F8093CA0084
:100EE0008093C90006C0C62FD8DE882341F38C2F1B
:100EF000ACDE81E090E0CF910895CF92DF92EF9247
:100F0000FF920F931F93CF93DF936C01EB017B0153
:100F1000E40EF51E00E010E0CE15DF0531F069911A
:100F2000C601C4DF080F191FF7CFC801DF91CF91A9
:100F30001F910F91FF90EF90DF90CF9008958091D7
:100F4000C900882331F090E02091CA00821B9109EA
:100F500008959CDE90E00895F2DF892BA9F080913E
:100F6000C900882371F02091CA00E0919B00F091A4
:100F70009C00E20FF11D808190E02F5F2093CA005A
:100F8000089573DE90E008958FEF9FEF08957093BA
:100F9000CC006093CB0008957093CE006093CD0099
:100FA00008950895882349F0813071F496B3E42FB1
:100FB000F0E0ED52FF4F908310C099B3E42FF0E0C2
:100FC000ED52FF4F908305C0882319F0813041F422
:100FD00004C092B3692B62BB03C090B5692B60BD9E
:100FE0004BB78C5F21E030E0B90102C0660F771F7C
:100FF0008A95E2F7CB01842B8BBF08950895E09189
:10100000AB00F091AC000994E091A900F091AA0026
:101010000994E091A700F091A8000994E091A5003F
:10102000F091A6000994E091A300F091A400099426
:10103000E091A100F091A2000994E0919F00F0914D
:10104000A0000994E0919D00F0919E0009941F92E8
:101050000F920FB60F9211242F933F934F935F93EC
:101060006F937F938F939F93AF93BF93CF93EF93A0
:10107000FF9329B3C091D300822F8C279091CF008A
:1010800092233091D100C323C92BC8232093D300CE
:10109000C0FDB5DFC1FDB8DFC2FDBBDFC3FDBEDFF4
:1010A000C4FDC1DFC5FDC4DFC6FDC7DFC7FDCADFA4
:1010B000FF91EF91CF91BF91AF919F918F917F91D0
:1010C0006F915F914F913F912F910F900FBE0F90B5
:1010D0001F9018950895E091B300F091B400099421
:1010E000E091B100F091B2000994E091AF00F0916D
:1010F000B0000994E091AD00F091AE0009941F9208
:101100000F920FB60F9211242F933F934F935F933B
:101110006F937F938F939F93AF93BF93CF93EF93EF
:10112000FF9326B3C091D400822F8C279091D000DA
:1011300092233091D200C323C92BC8232093D4001B
:10114000C0FDC9DFC1FDCCDFC2FDCFDFC3FDD2DFF3
:10115000FF91EF91CF91BF91AF919F918F917F912F
:101160006F915F914F913F912F910F900FBE0F9014
:101170001F90189581B781BF6CD015DD80DCFECF44
:101180008EB5887F8EBD8FB581608FBD8FB58D7F09
:101190008FBD8EB5877F8EBD8EB58F7E8EBD8EB591
:1011A00083608EBD08951F920F920FB60F92112487
:1011B0002F933F938F939F93AF93BF938091D600CC
:1011C0009091D700A091D800B091D9003091D5006E
:1011D00026E0230F2D3730F029E8230F0396A11DB9
:1011E000B11D03C00296A11DB11D2093D5008093AF
:1011F000D6009093D700A093D800B093D9008091E7
:10120000DA009091DB00A091DC00B091DD00019646
:10121000A11DB11D8093DA009093DB00A093DC0048
:10122000B093DD00BF91AF919F918F913F912F912E
:101230000F900FBE0F901F9018952FB7F8946091E4
:10124000D6007091D7008091D8009091D9002FBF1F
:10125000089580B7826080BF80B7816080BF83B708
:10126000887F836083BF789489B7816089BF88DF76
:1012700086B18877866886B9379A08951F93CF9389
:10128000DF93182FEB0161E067D01C161D0614F0E8
:1012900060E004C0CF3FD10534F061E0812FDF91E1
:1012A000CF911F9197C0E12FF0E0EE5DFF4FE491E9
:1012B000E13041F480B7806880BF80B78F7B80BF0A
:1012C000C6BF24C0E23041F480B7806280BF80B7DF
:1012D0008F7E80BFCCBF1AC0E33049F48FB58068E1
:1012E0008FBD8FB58F7B8FBDDBBDCABD0FC0E43016
:1012F00049F48FB580628FBD8FB58F7E8FBDD9BD0C
:10130000C8BD04C0C038D10544F6C2CFDF91CF912B
:101310001F910895813031F480B78F7780BF80B7F7
:101320008F7B07C0823039F480B78F7D80BF80B754
:101330008F7E80BF0895833031F48FB58F778FBD56
:101340008FB58F7B07C0843031F48FB58F7D8FBD13
:101350008FB58F7E8FBD0895CF93DF9387FD8F77F5
:1013600090E0FC01E25DFF4F2491FC01E65CFF4F41
:101370008491882361F190E0880F991FFC01EE5A57
:10138000FF4FC591D491FC01E45BFF4FA591B4914F
:10139000611109C09FB7F8948881209582238883C2
:1013A000EC912E230BC0623061F49FB7F8948881D2
:1013B000322F309583238883EC912E2B2C939FBF63
:1013C00006C08FB7F894E8812E2B28838FBFDF915A
:1013D000CF9108951F93CF93DF93162F87FD8F77BB
:1013E000282F30E0F901EE5DFF4F8491F901E25DB5
:1013F000FF4FD491F901E65CFF4FC491CC23D1F0AB
:10140000811188DFEC2FF0E0EE0FFF1FE45BFF4F50
:10141000A591B491111108C09FB7F8948C91D09503
:10142000D823DC939FBF06C08FB7F894EC91DE2BD6
:10143000DC938FBFDF91CF911F910895CF93DF93FE
:1014400087FD8F77282F30E0F901EE5DFF4F849103
:10145000F901E25DFF4FD491F901E65CFF4FC491C1
:10146000CC2389F0811156DFEC2FF0E0EE0FFF1F47
:10147000EA5BFF4FA591B491EC91ED2381E090E000
:1014800021F480E002C080E090E0DF91CF910895E8
:10149000E199FECF9FBB8EBBE09A99278DB308954B
:1014A000262FE199FECF1CBA9FBB8EBB2DBB0FB67A
:1014B000F894E29AE19A0FBE01960895F894FFCF4E
:1014C00002650080000005000003FFFFFFFFFFFF33
:1014D000FFFFFFFFFFFFFFFFFFFFFFFFFFFFFFFF1C
:1014E0005C000102030000000000000000FFFFFF9D
:1014F000000000000000FA003F0000DE00D107D12C
:1015000007D107D107D107D107D107D107D107D11B
:0615100007D107D107001E
:00000001FF
