:100000002BC045C0E2C738C842C041C040C03FC055
:100010003EC03DC03CC083C83AC039C038C003C6EA
:100020004AC60000000000040302010000000102B3
:1000300004081020408004020108010101010101AF
:1000400001010202020200003900360000003B00FC
:10005000380000003A00370011241FBECFE5D2E07F
:10006000DEBFCDBF10E0A0E6B0E0E4E4F4E102C002
:1000700005900D92A03BB107D9F720E0A0EBB0E0CE
:1000800001C01D92A93FB207E1F730D8D9C9B8CF56
:10009000CF938AE095D9C82F82E092D99091B90088
:1000A000990F990F982B8C2F880F892B8093B9006B
:1000B0008091B9008B3409F068C0809182009091E2
:1000C0008300019690938300809382008091840046
:1000D0009091850001969093850080938400809193
:1000E0008D0090918E00892BE9F020918A008091FB
:1000F0008D0090918E00820F911D8F3F910509F028
:100100002CF497FF05C080E090E002C08FEF90E0F4
:1001100080938A0080918A006FEF70E0681B7109FC
:1001200088E068D880918F0090919000892BE9F049
:1001300020918B0080918F0090919000820F911DF3
:100140008F3F910509F02CF497FF05C080E090E007
:1001500002C08FEF90E080938B0080918B006FEF57
:1001600070E0681B710987E045D8809191009091FB
:100170009200892B09F48CC020918C008091910011
:1001800090919200820F911D6EC08091B9008738C6
:1001900009F08CC080918200909183000197909328
:1001A0008300809382008091840090918500019764
:1001B000909385008093840080918D0090918E00B3
:1001C000892BF1F080918A0020918D0030918E0072
:1001D00090E0821B930B8F3F910509F02CF497FF61
:1001E00005C080E090E002C08FEF90E080938A002D
:1001F00080918A006FEF70E0681B710988E0FAD780
:1002000080918F0090919000892BF1F080918B006C
:1002100020918F003091900090E0821B930B8F3FD4
:10022000910509F02CF497FF05C080E090E002C032
:100230008FEF90E080938B0080918B006FEF70E0E8
:10024000681B710987E0D6D7809191009091920048
:10025000892BF1F080918C002091910030919200D7
:1002600090E0821B930B8F3F910509F02CF497FFD0
:1002700005C080E090E002C08FEF90E080938C009A
:1002800080918C006FEF70E0681B710985E0B2D738
:1002900080917E00816080937E008BD76093B00058
:1002A0007093B1008093B2009093B300CF91089502
:1002B000FF920F931F93CF93DF938C0182EC90E01A
:1002C00009D68093BB00F12C01501109CF2DD0E04D
:1002D000C017D1070CF045C082EC90E0FBD590919F
:1002E000BB009E01290F311D29313105C0F59091C8
:1002F000BB002091BB00AE01420F511DE091620096
:10030000F0916300E40FF51FA0916000B0916100CF
:10031000AC0FBD1FA90FB11D2C9130E02095309579
:10032000408150E02423352320839091BB0020910D
:10033000BB00AE01420F511DE0916200F0916300DD
:10034000E40FF51F2091600030916100C20FD31FB0
:10035000C90FD11D988189239081982B9083F394A4
:10036000B5CF81E08093BA00DF91CF911F910F91BB
:10037000FF9008950F931F938091B0009091B1006A
:10038000A091B200B091B300892B8A2B8B2B79F00E
:1003900010D70091B0001091B1002091B2003091BF
:1003A000B300601B710B709387006093860080918F
:1003B000B4009091B500A091B600B091B700892B20
:1003C0008A2B8B2B79F0F5D60091B4001091B500F3
:1003D0002091B6003091B700601B710B70938900BB
:1003E000609388001092B80061E080E0AFD760E0D1
:1003F00080E06ED79091BB008091BB0049E150E056
:10040000491B51096091620070916300680F711D72
:1004100082EC90E01F910F912EC5FC0180819181AB
:10042000F9C70F931F93CF93DF9300D0CDB7DEB7FB
:100430008B019A838983CE010196EFDFF8018083D7
:10044000C8010F900F90DF91CF911F910F910895E8
:10045000EF92FF920F931F93CF93DF9300D0CDB70E
:10046000DEB78C017B019A838983CE010196D5DFAB
:10047000F70180830F5F1F4F1A830983CE01019616
:10048000CCDFF7018183C7010F900F90DF91CF91EF
:100490001F910F91FF90EF900895EF92FF920F93AD
:1004A0001F93CF93DF9300D0CDB7DEB78C017B01D4
:1004B0009A838983CE010196B0DFF70180830F5FB5
:1004C0001F4F1A830983CE010196A7DFF7018183AD
:1004D000C7010F900F90DF91CF911F910F91FF9067
:1004E000EF9008950F931F93CF93DF931F92CDB793
:1004F000DEB78C01698391DF6981681721F0F8010B
:10050000808191818FD7C8010F90DF91CF911F918A
:100510000F9108950F931F93CF93DF9300D0CDB722
:10052000DEB78B01FB0160819A838983CE0101963E
:10053000D9DFC8010F900F90DF91CF911F910F91DC
:100540000895EF92FF920F931F93CF93DF9300D004
:10055000CDB7DEB78C017B01FB0160819A83898373
:10056000CE010196BFDFF70161810F5F1F4F1A8334
:100570000983CE010196B6DFC7010F900F90DF917E
:10058000CF911F910F91FF90EF9008950F931F93BC
:10059000CF93DF9300D0CDB7DEB70DE710E0F801C1
:1005A00066898BE090E09A838983CE0101969ADF79
:1005B000F80167898CE090E09A838983CE010196E7
:1005C00091DF83E990E00F900F90DF91CF911F9121
:1005D0000F9108950F931F93CF93DF9300D0CDB762
:1005E000DEB71A821982CE01019617DF809395003B
:1005F000809195008F3F41F48FE380939500609147
:10060000950080E090E00ED780919500883008F446
:10061000A8C080919500883708F0A3C081E090E0E1
:100620009A838983CE010196F8DE809381008091C0
:1006300081008F3F41F483E08093810060918100CD
:1006400081E090E0EFD682E090E09A838983CE014A
:100650000196E3DE80938A0080918A000FEF10E01C
:10066000B801681B710988E0C5D583E090E09A83E2
:100670008983CE010196D1DE80938B0080918B001F
:10068000B801681B710987E0B5D584E090E09A83D2
:100690008983CE010196C1DE80938C0080918C000D
:1006A000B801681B710985E0A5D56DE870E085E0AB
:1006B00090E0F3DE80918D0090918E00019649F4D8
:1006C00010928E0010928D006DE870E085E090E051
:1006D00038DF6FE870E087E090E0DFDE80918F0028
:1006E00090919000019649F41092900010928F0022
:1006F0006FE870E087E090E024DF61E970E089E076
:1007000090E0CBDE8091910090919200019649F4A7
:10071000109292001092910061E970E089E090E0FF
:1007200010DF8BE090E09A838983CE01019675DE1D
:10073000809393008CE090E09A838983CE010196A8
:100740006CDE8093940080919300909194000196C8
:1007500089F48AEF90E0909394008093930016DFE1
:1007600009C08FE3809395006091950080E090E050
:1007700059D654CF0F900F90DF91CF911F910F91C9
:10078000089516B884E885BF80E885BF85B7877E61
:1007900085BF85B7806285BF089582EC90E043D322
:1007A00089E00ED6019719F46091950001C06EE3BF
:1007B00082EC90E036D368E571E082EC90E0A5D35E
:1007C0006AEB71E082EC90E0A5C3CF93DF93CDB7E5
:1007D000DEB729970FB6F894DEBF0FBECDBF80916C
:1007E0009500883008F4E1C080919500883708F0C2
:1007F000DCC0BE01675F7F4F80E090E012DE809139
:1008000095009985981731F065E970E080E090E0F7
:1008100081DEC3DFBE01685F7F4F81E090E001DED3
:10082000809181009885981729F061E870E081E057
:1008300090E070DEBE01695F7F4F82E090E0F1DD05
:1008400080918A009F81981729F06AE870E082E021
:1008500090E060DE80918A006FEF70E0681B7109A4
:1008600088E0C8D4BE01695F7F4F83E090E0D9DDA6
:1008700080918B009F81981729F06BE870E083E0EE
:1008800090E048DE80918B006FEF70E0681B71098B
:1008900087E0B0D4BE01695F7F4F84E090E0C1DDA6
:1008A00080918C009F81981729F06CE870E084E0BB
:1008B00090E030DE80918C006FEF70E0681B710972
:1008C00085E098D4BE016B5F7F4F85E090E0C0DD8E
:1008D00080918D0090918E002D813E8128173907DF
:1008E00029F06DE870E085E090E02BDEBE016B5FE3
:1008F0007F4F87E090E0ACDD80918F009091900079
:100900002D813E812817390729F06FE870E087E0D4
:1009100090E017DEBE016B5F7F4F89E090E098DDCD
:1009200080919100909192002D813E812817390786
:1009300029F061E970E089E090E003DE8BE090E06F
:100940009A838983CE01019668DD8B838CE090E0E9
:100950009A838983CE01019660DD8C838091930018
:10096000909194002B813C812817390709F00EDE05
:100970008091860090918700892B41F41092B000FD
:100980001092B1001092B2001092B30080918800D2
:1009900090918900892B69F41092B4001092B500EF
:1009A0001092B6001092B70004C08FE380939500B8
:1009B00020CF29960FB6F894DEBF0FBECDBFDF91D2
:1009C000CF9108958091B800811109C081E0809392
:1009D000B80061E080E07CD460E080E0B7C40895B6
:1009E00090917E0082E0892780937E0083E0E8D4A6
:1009F000892B71F480917E00846080937E00D9D32E
:100A00006093B4007093B5008093B6009093B700E4
:100A10008091810081FDD6CF08950F931F9380911F
:100A2000810080FF20C080917E0080FF1CC0C1D368
:100A30000091B0001091B1002091B2003091B3004C
:100A4000E0919300F0919400AB01BC01401B510B6D
:100A5000620B730BCF01A0E0B0E084179507A607E7
:100A6000B70708F4AFDF8091BA00813019F4109213
:100A7000BA00ABDE85B7806285BF889585B78F7D6C
:100A800085BF1F910F910895EF92FF920F931F93CF
:100A9000CF93DF93DCD288E4E82E80E0F82EF0924A
:100AA000AF00E092AE000AEC10E0F80181818160B5
:100AB0008183CCECD0E089818160898341E061E071
:100AC00081E02ED259D2F092A300E092A200F80168
:100AD00080818460808388818460888340E064E0D2
:100AE00080E01ED249D280EF94E09093A1008093E1
:100AF000A000F80180818860808388818860888375
:100B000040E068E080E0DF91CF911F910F91FF906E
:100B1000EF9006C262E089E0DBD361E088E0D8D3E1
:100B200061E087E0D5D361E085E0D2D360E083E087
:100B3000CFD360E082E0CCD360E08AE0C9D360E04C
:100B400080E0C6D31EDE46DD9FDF1092B00010921B
:100B5000B1001092B2001092B3001092B400109243
:100B6000B5001092B6001092B70017CE1092BE00DA
:100B70001092BF001092BC001092BD000895CF9358
:100B8000DF931F92CDB7DEB78983F0DF8981809331
:100B9000C1001092C9001092C8001092C7001092B4
:100BA000C600DC9ADE9AD49AD69888EA8DB980EF8E
:100BB0008EB90F90DF91CF910895D498D6981DB833
:100BC00080EF8EB908959091BD009F5F9F70209136
:100BD000BC009217E1F3E92FF0E0E751FF4F80836B
:100BE0009093BD0008958091BE009091BF0098172A
:100BF000E1F3E091BE00EF5FEF70E093BE00F0E044
:100C0000E752FF4F808108959091BE008091BF0010
:100C1000891B8F7008959091BD008091BC009F5FEB
:100C2000891B8F7008951F920F920FB60F92112497
:100C30000F931F932F933F934F935F936F937F93E4
:100C40008F939F93AF93BF93CF93EF93FF930091B5
:100C5000C6001091C7000115110561F0C091BF00D9
:100C60008091BE008C1731F0CFDF90E0F80109953C
:100C7000C093BE001092C000D698CC9B04C0CE9BFF
:100C8000FCCF88EA01C088EF8DB980EF8EB9FF9163
:100C9000EF91CF91BF91AF919F918F917F916F9184
:100CA0005F914F913F912F911F910F910F900FBE28
:100CB0000F901F9018951F920F920FB60F9211244C
:100CC0000F931F932F933F934F935F936F937F9354
:100CD0008F939F93AF93BF93CF93EF93FF938091A5
:100CE000C000823009F44CC028F4882359F08130C8
:100CF00051F183C0843009F449C010F1853009F402
:100D000064C07BC08FB1882331F08FB186959091FC
:100D1000C100891330C0789B0DC0E091C800F091EC
:100D2000C900309729F08091BD008093BC000995DF
:100D300081E001C084E08093C0001FB8D69A5BC0F8
:100D40008FB1811118C08091BC009091BD0098179F
:100D500091F08091BC008F5F8F708093BC00E09118
:100D6000BC00F0E0E751FF4F80818FB982E08093B3
:100D7000C000D69A03C0D69888EA8DB980E73CC0F7
:100D800083E08093C000D6981FB835C085E080937B
:100D9000C000D69880E78EB90091C6001091C700B8
:100DA0000115110551F1C091BF008091BE008C1753
:100DB00021F18EB18E7AE9F3759B1FC025DF90E09B
:100DC000F8010995C093BE0018C084E08093C0006C
:100DD0009FB18091BF008F5F8F702091BE00281758
:100DE00049F08093BF00E091BF00F0E0E752FF4F71
:100DF0009083A3CFD6988EE78EB9FF91EF91CF91D4
:100E0000BF91AF919F918F917F916F915F914F9122
:100E10003F912F911F910F910F900FBE0F901F9038
:100E20001895862FACCEC9CECF938091C30088236E
:100E3000C1F08091C400803218F080E090E019C0C9
:100E40008091C500E0919600F0919700E80FF11DA8
:100E500060838091C5008F5F8093C5008093C4003C
:100E600006C0C62FD8DE882341F38C2FACDE81E08C
:100E700090E0CF910895CF92DF92EF92FF920F937F
:100E80001F93CF93DF936C01EB017B01E40EF51E02
:100E900000E010E0CE15DF0531F06991C601C4DF36
:100EA000080F191FF7CFC801DF91CF911F910F9144
:100EB000FF90EF90DF90CF9008958091C400882339
:100EC00031F090E02091C500821B910908959CDECD
:100ED00090E00895F2DF892BA9F08091C400882367
:100EE00071F02091C500E0919600F0919700E20F1B
:100EF000F11D808190E02F5F2093C500089573DE7F
:100F000090E008958FEF9FEF08957093C70060936E
:100F1000C60008957093C9006093C80008950895AD
:100F2000882349F0813071F496B3E42FF0E0E25366
:100F3000FF4F908310C099B3E42FF0E0E253FF4FCE
:100F4000908305C0882319F0813041F404C092B326
:100F5000692B62BB03C090B5692B60BD4BB78C5F3A
:100F600021E030E0B90102C0660F771F8A95E2F7F1
:100F7000CB01842B8BBF08950895E091A600F091DA
:100F8000A7000994E091A400F091A5000994E091D4
:100F9000A200F091A3000994E091A000F091A100BB
:100FA0000994E0919E00F0919F000994E0919C00CB
:100FB000F0919D000994E0919A00F0919B000994B2
:100FC000E0919800F091990009941F920F920FB64A
:100FD0000F9211242F933F934F935F936F937F93BF
:100FE0008F939F93AF93BF93CF93EF93FF9329B3C7
:100FF0008091CE00C091CC00C8239091CA0092236A
:10100000C92B8227C8232093CE00C0FDB6DFC1FDC7
:10101000B9DFC2FDBCDFC3FDBFDFC4FDC2DFC5FD5C
:10102000C5DFC6FDC8DFC7FDCBDFFF91EF91CF91D4
:10103000BF91AF919F918F917F916F915F914F91F0
:101040003F912F910F900FBE0F901F90189508950C
:10105000E091AE00F091AF000994E091AC00F09106
:10106000AD000994E091AA00F091AB000994E091E1
:10107000A800F091A90009941F920F920FB60F9249
:1010800011242F933F934F935F936F937F938F938D
:101090009F93AF93BF93CF93EF93FF9326B380912A
:1010A000CF00C091CD00C8239091CB009223C92BD3
:1010B0008227C8232093CF00C0FDCADFC1FDCDDF4A
:1010C000C2FDD0DFC3FDD3DFFF91EF91CF91BF9180
:1010D000AF919F918F917F916F915F914F913F91D0
:1010E0002F910F900FBE0F901F90189581B781BF61
:1010F0006CD010DD92DCFECF8EB5887F8EBD8FB5B3
:1011000081608FBD8FB58D7F8FBD8EB5877F8EBD82
:101110008EB58F7E8EBD8EB583608EBD08951F9275
:101120000F920FB60F9211242F933F938F939F939B
:10113000AF93BF938091D1009091D200A091D30042
:10114000B091D4003091D00026E0230F2D3730F03D
:1011500029E8230F0396A11DB11D03C00296A11D0E
:10116000B11D2093D0008093D1009093D200A09322
:10117000D300B093D4008091D5009091D600A09177
:10118000D700B091D8000196A11DB11D8093D50064
:101190009093D600A093D700B093D800BF91AF91A1
:1011A0009F918F913F912F910F900FBE0F901F90A5
:1011B00018952FB7F8946091D1007091D20080916A
:1011C000D3009091D4002FBF089580B7826080BF74
:1011D00080B7816080BF83B7887F836083BF789446
:1011E00089B7816089BF88DF86B18877866886B9CC
:1011F000379A08951F93CF93DF93182FEB0161E087
:1012000067D01C161D0614F060E004C0CF3FD10566
:1012100034F061E0812FDF91CF911F9197C0E12FD2
:10122000F0E0EE5DFF4FE491E13041F480B780687B
:1012300080BF80B78F7B80BFC6BF24C0E23041F43F
:1012400080B7806280BF80B78F7E80BFCCBF1AC05E
:10125000E33049F48FB580688FBD8FB58F7B8FBD2C
:10126000DBBDCABD0FC0E43049F48FB580628FBDCD
:101270008FB58F7E8FBDD9BDC8BD04C0C038D10524
:1012800044F6C2CFDF91CF911F910895813031F4A0
:1012900080B78F7780BF80B78F7B07C0823039F4EB
:1012A00080B78F7D80BF80B78F7E80BF08958330E9
:1012B00031F48FB58F778FBD8FB58F7B07C08430AA
:1012C00031F48FB58F7D8FBD8FB58F7E8FBD089523
:1012D000CF93DF9387FD8F7790E0FC01E25DFF4FB6
:1012E0002491FC01E65CFF4F8491882361F190E03A
:1012F000880F991FFC01EE5AFF4FC591D491FC0154
:10130000E45BFF4FA591B491611109C09FB7F894B8
:101310008881209582238883EC912E230BC0623034
:1013200061F49FB7F8943881822F80958323888356
:10133000EC912E2B2C939FBF06C08FB7F894E881B9
:101340002E2B28838FBFDF91CF9108950F931F938A
:10135000CF93DF931F92CDB7DEB787FD8F77282F0E
:1013600030E0F901EE5DFF4F8491F901E25DFF4F3E
:101370001491F901E65CFF4F04910023D9F0882312
:1013800019F0698383DF6981E02FF0E0EE0FFF1F22
:10139000E45BFF4FA591B4918FB7611106C0F8943B
:1013A0009C91E12FE095E92303C0F894EC91E12BA7
:1013B000EC938FBF0F90DF91CF911F910F91089504
:1013C000CF93DF9387FD8F77282F30E0F901EE5D13
:1013D000FF4F8491F901E25DFF4FD491F901E65C82
:1013E000FF4FC491CC2389F0811150DFEC2FF0E046
:1013F000EE0FFF1FEA5BFF4FA591B491EC91ED2337
:1014000081E090E021F480E002C080E090E0DF9194
:10141000CF910895E199FECF9FBB8EBBE09A9927AB
:101420008DB30895262FE199FECF1CBA9FBB8EBBCA
:101430002DBB0FB6F894E29AE19A0FBE019608957B
:04144000F894FFCF4E
:1014440064007D000005000003FFFFFFFFFFFFFFB6
:10145400FFFFFFFFFFFFFFFFFFFFFFFFFF5C000138
:1014640000030000000000000000FFFFFF00000078
:10147400000000FA003FD9008F078F078F078F07FE
:101484008F078F078F078F078F078F078F078F07A8
:00000001FF
