:100000000C9462000C9462040C943B040C948A00DF
:100010000C948A000C94E1040C948A000C948A00DD
:100020000C948A000C948A000C948A000C948A0028
:100030000C948A000C948A000C948A000C948A0018
:100040000C9419080C948A000C94AF040C94890445
:100050000C948A000C948A000C948A000C948A00F8
:100060000C944C050C948A0000000000240027002A
:100070002A0000000000250028002B0000000000DE
:1000800023002600290004040404040404040202DA
:100090000202020203030303030301020408102007
:1000A0004080010204081020010204081020000012
:1000B0000008000201000003040700000000000027
:1000C0000000080B11241FBECFEFD8E0DEBFCDBF6C
:1000D00011E0A0E0B1E0ECE0F7E102C005900D9284
:1000E000AE3AB107D9F723E0AEEAB1E001C01D9204
:1000F000AD31B207E1F710E0C2E6D0E004C02197CD
:10010000FE010E94790BC136D107C9F70E9463082E
:100110000C94840B0C940000E0915502F09156026F
:10012000309729F01092500210924F0209940895CE
:10013000CF93DF93AC01E0915302F09154023097DA
:10014000F1F090915202809151029817C0F090E026
:10015000292F30E02617370754F4D901AF54BE4F8A
:10016000EA01C20FD31F28812C939F5FF1CF109219
:10017000520260935102CB01DF91CF910994DF913C
:10018000CF91089508950895CF92DF92EF92FF9254
:100190000F931F93CF93DF936C017A018B01C0E023
:1001A000D0E0CE15DF0581F0D8016D918D01D6012B
:1001B000ED91FC910190F081E02DC6010995892B0C
:1001C00011F02196EECF7E01C701DF91CF911F91F3
:1001D0000F91FF90EF90DF90CF900895FC01538D29
:1001E000448D252F30E0842F90E0821B930B541711
:1001F00010F0CF96089501970895FC01918D828D9E
:10020000981761F0828DDF01A80FB11D5D968C916A
:10021000928D9F5F9F73928F90E008958FEF9FEF75
:100220000895FC01918D828D981731F0828DE80F31
:10023000F11D858D90E008958FEF9FEF0895FC01EB
:10024000918D228D892F90E0805C9F4F821B9109B8
:100250008F73992708958FE692E00E941F0121E095
:10026000892B09F420E0822F0895FC01848DDF01A1
:10027000A80FB11DA35ABF4F2C91848D90E0019619
:100280008F739927848FA689B7892C93A089B18908
:100290008C91837080648C93938D848D981306C0A9
:1002A0000288F389E02D80818F7D80830895EF920D
:1002B000FF920F931F93CF93DF93EC0181E0888F20
:1002C0009B8D8C8D981305C0E889F989808185FD07
:1002D00026C0F62E0B8D10E00F5F1F4F0F731127F6
:1002E000E02E8C8DE8120CC00FB607FCFACFE8891F
:1002F000F989808185FFF5CFCE010E943501F1CFCC
:100300008B8DFE01E80FF11DE35AFF4FF0829FB77E
:10031000F8940B8FEA89FB89808180620AC09FB7BD
:10032000F894EE89FF896083E889F9898081837078
:10033000806480839FBF81E090E0DF91CF911F9127
:100340000F91FF90EF900895CF93DF93EC01888D8C
:100350008823C9F0EA89FB89808185FD05C0A889C9
:10036000B9898C9186FD0FC00FB607FCF5CF80814F
:1003700085FFF2CFA889B9898C9185FFEDCFCE0199
:100380000E943501E7CFDF91CF91089580E090E0A2
:10039000892B29F00E942B0181110C9400000895F3
:1003A00085ED8093BC008091BC0084FDFCCF109251
:1003B000150208954091F101262F30E0240F311DE0
:1003C00021323105DCF4209115022430C9F4FC01FE
:1003D00080E090E0861758F43091F1012191DC0122
:1003E000AF52BE4FA30FB11D2C930196F3CF809156
:1003F000F101680F6093F10180E0089581E00895B4
:1004000082E008950895E091520280915102E81728
:1004100030F4F0E0EF54FE4F808190E008958FEFCC
:100420009FEF08959091520280915102981750F4D5
:10043000E92FF0E0EF54FE4F208130E09F5F909372
:10044000520202C02FEF3FEFC9010895809151027F
:1004500090E020915202821B91090895CF93DF937F
:10046000CB01EA01642F0E94DA01CE01DF91CF9126
:100470000895CF93DF931F92CDB7DEB7698361E014
:10048000CE0101960E94DA0181E090E00F90DF91A9
:10049000CF910895089580E090E00895CF93DF9381
:1004A0008CE093E00E9412028093AF01C0E0D0E0A4
:1004B00090915102809152029817B1F08CE093E034
:1004C0000E9412029091AF019E01290F311D293126
:1004D000310574F79091AF01FE01E90FF11DEF5F57
:1004E000FE4F80832196E4CFDF91CF910895109243
:1004F000150281E0809317021092160261E082E1FA
:100500000E944F0761E083E10E944F07E9EBF0E0B2
:1005100080818E7F808380818D7F808388E480933B
:10052000B80085E48093BC0008958091AF0160918C
:10053000AF0149E150E0481B510970E06F5F7E4F09
:100540008CE093E00E942E021092630260E087E04C
:100550000C947E078091B00191E089278093B001CF
:100560008091B001811115C090935C022FB7F8946F
:1005700080916B0290916C02A0916D02B0916E021D
:100580002FBF8093580290935902A0935A02B093C0
:100590005B028091630281110BC081E08093630252
:1005A00061E087E00E947E0760E087E00C944F07DF
:1005B0000895CF9382E00E942607C82F83E00E940F
:1005C00026072091AE0194E0299F90011124282B49
:1005D0008C2F880F822B8093AE018091AE018B34DB
:1005E00009F06AC080916102909162020196909335
:1005F00062028093610280915D0290915E02019699
:1006000090935E0280935D0280913F029091400240
:10061000892BF1F02091410280913F02909140029C
:10062000820F911D8F3F910509F02CF497FF05C0B3
:1006300080E090E002C08FEF90E0809341028091D3
:1006400041026FEF70E0681B710989E00E94BA07F0
:1006500080913D0290913E02892BF1F02091600241
:1006600080913D0290913E02820F911D8F3F910536
:1006700009F02CF497FF05C080E090E002C08FEFF6
:1006800090E080936002809160026FEF70E0681BE1
:1006900071098AE00E94BA0780913B0290913C0266
:1006A000892B09F48FC020915F0280913B029091C9
:1006B0003C02820F911D70C08091AE01873809F015
:1006C00081C08091610290916202019790936202D1
:1006D0008093610280915D0290915E0201979093F8
:1006E0005E0280935D0280913F0290914002892BCF
:1006F000F9F08091410220913F023091400290E058
:10070000821B930B8F3F910509F02CF497FF05C0D6
:1007100080E090E002C08FEF90E0809341028091F2
:1007200041026FEF70E0681B710989E00E94BA070F
:1007300080913D0290913E02892BF9F080916002F8
:1007400020913D0230913E0290E0821B930B8F3F3F
:10075000910509F02CF497FF05C080E090E002C0FD
:100760008FEF90E080936002809160026FEF70E005
:10077000681B71098AE00E94BA0780913B02909140
:100780003C02892BF9F080915F0220913B0230916D
:100790003C0290E0821B930B8F3F910509F02CF4F3
:1007A00097FF05C080E090E002C08FEF90E080935B
:1007B0005F0280915F026FEF70E0681B710985E056
:1007C0000E94BA072FB7F89480916B0290916C0247
:1007D000A0916D02B0916E022FBF8093670290933B
:1007E0006802A0936902B0936A0281E08093640278
:1007F000CF9108950F931F93CF93DF938C01EB015B
:100800000E94410B8883C80101960E94410B898395
:10081000CE01DF91CF911F910F910895AF92BF92BA
:10082000DF92EF92FF920F931F93CF93DF93EC0130
:100830007B018B015C0182E0A80EB11CF801D19014
:100840008F01CE010E94410BD81621F06D2DCE01F3
:100850000E94490B2196CA15DB0581F7C701DF917C
:10086000CF911F910F91FF90EF90DF90BF90AF90CD
:1008700008950E947F0B1F920F920FB60F921124C2
:100880002F933F934F935F936F937F938F939F9398
:10089000AF93BF93EF93FF93E0912A01F0912B0167
:1008A0000995FF91EF91BF91AF919F918F917F91AA
:1008B0006F915F914F913F912F910F900FBE0F90CD
:1008C0001F9018951F920F920FB60F9211242F931D
:1008D0003F934F935F936F937F938F939F93AF93C8
:1008E000BF93EF93FF93E0912801F09129010995BF
:1008F000FF91EF91BF91AF919F918F917F916F91F8
:100900005F914F913F912F910F900FBE0F901F90CD
:1009100018951F920F920FB60F9211242F933F93A9
:100920004F935F936F937F938F939F93AF93BF93F7
:10093000EF93FF938FE692E00E943501FF91EF91D4
:10094000BF91AF919F918F917F916F915F914F91E7
:100950003F912F910F900FBE0F901F9018951F92EF
:100960000F920FB60F9211242F938F939F93EF93B3
:10097000FF93E0917F02F09180028081E0918502F7
:10098000F091860282FD12C09081809188028F5F73
:100990008F7320918902821751F0E0918802F0E074
:1009A000E159FD4F958F8093880201C08081FF91AE
:1009B000EF919F918F912F910F900FBE0F901F90ED
:1009C00018951F920F920FB60F9211242F933F93F9
:1009D0004F935F936F937F938F939F93AF93BF9347
:1009E000CF93EF93FF9329B1C0914402822F8C27BC
:1009F00090914A02922330914702C323C92BC82306
:100A000020934402C4FF05C0E0912C01F0912D0118
:100A10000995C5FF05C0E0911A01F0911B010995E8
:100A2000C6FF05C0E0911C01F0911D010995C7FFAB
:100A300005C0E0911E01F0911F010995C0FF05C09E
:100A4000E0912001F09121010995C1FF05C0E091DD
:100A50002201F09123010995C2FF05C0E091240114
:100A6000F09125010995C3FF05C0E0912601F091A1
:100A700027010995FF91EF91CF91BF91AF919F9180
:100A80008F917F916F915F914F913F912F910F9037
:100A90000FBE0F901F9018951F920F920FB60F92D6
:100AA00011242F933F934F935F936F937F938F9373
:100AB0009F93AF93BF93EF93FF938091B900887F8B
:100AC000803609F49CC068F5883209F45BC090F464
:100AD000803109F454C038F4882309F4F6C0883012
:100AE00009F44DC0F6C0883109F44CC0803209F4D5
:100AF0005DC0EFC0803409F468C048F4803309F465
:100B000055C0883309F0E5C080931402D8C0803501
:100B100009F44FC0883509F45DC0883409F0D9C0A4
:100B2000D6C0883909F4C7C0A8F4883709F467C06B
:100B300038F4883609F463C0803709F460C0C9C04E
:100B4000883809F4B8C0803909F45FC0803809F0EA
:100B5000C0C05BC0803B09F486C038F4803A09F419
:100B600066C0883A09F47FC0B4C0803C09F4A7C0CD
:100B7000883C09F4A4C0883B09F48AC0AAC08091CB
:100B80003A0210C09091390280913802981770F59E
:100B9000E091390281E08E0F80933902F0E0E85E47
:100BA000FD4F80818093BB0085EC86C0809314024A
:100BB0008EC0E091390281E08E0F809339028091DE
:100BC000BB00F0E0E85EFD4F808390913902809198
:100BD00038026EC0E091390281E08E0F80933902B5
:100BE0008091BB00F0E0E85EFD4F808380911702AA
:100BF00081116DC081E08093160284EA61C083E0B8
:100C00008093150210921302CFCF8091130280328D
:100C100008F051C0E091130281E08E0F809313021F
:100C20008091BB00F0E0ED50FE4F8083BDCF85EC9E
:100C30008093BC001092150280911302803230F430
:100C4000E0911302F0E0ED50FE4F1082609113022C
:100C500070E0E0914B02F0914C0283EF91E0099536
:100C60001092130236C084E0809315021092F201B4
:100C70001092F101E0914D02F0914E0209958091A0
:100C8000F101811105C081E08093F1011092D10141
:100C9000E091F20181E08E0F8093F201F0E0EF52DB
:100CA000FE4F80818093BB009091F2018091F10111
:100CB000981708F479CF85E88093BC000AC085ECCA
:100CC0008093BC001092150204C0109214020E947E
:100CD000D001FF91EF91BF91AF919F918F917F9143
:100CE0006F915F914F913F912F910F900FBE0F9099
:100CF0001F901895833081F028F4813099F082306C
:100D0000A1F008958730A9F08830B9F08430D1F48B
:100D1000809180008F7D03C0809180008F778093C9
:100D20008000089584B58F7702C084B58F7D84BD1F
:100D300008958091B0008F7703C08091B0008F7DBF
:100D40008093B0000895009769F0FC0101900020A5
:100D5000E9F73197AF01481B590BBC018FE692E0D0
:100D60000C94C40080E090E008958F929F92AF921F
:100D7000BF920F931F93CF93DF93CDB7DEB7A197A9
:100D80000FB6F894DEBF0FBECDBF19A2423008F4F3
:100D90004AE08E010F5D1F4F842E912CA12CB12CA7
:100DA000A50194010E94570BE62FB901CA01015019
:100DB0001109EA3014F4E05D01C0E95CD801EC935C
:100DC000232B242B252B61F7C8010E94A306A19693
:100DD0000FB6F894DEBF0FBECDBFDF91CF911F914C
:100DE0000F91BF90AF909F908F900895CF92DF9218
:100DF000EF92FF92CF93DF936C01990FEE08FF08FB
:100E0000F7FE19C06DE28FE692E00E945701EC01F7
:100E100066277727CB016C197D098E099F094AE067
:100E20000E94B5068C0F9D1FDF91CF91FF90EF9030
:100E3000DF90CF9008954AE0C701B601DF91CF91CE
:100E4000FF90EF90DF90CF900C94B506CF93DF9397
:100E5000282F30E0F901E255FF4F8491F901E65661
:100E6000FF4FD491F901EA57FF4FC491CC2391F081
:100E700081110E947A06EC2FF0E0EE0FFF1FE4587C
:100E8000FF4FA591B491EC91ED2381E090E021F426
:100E900080E002C080E090E0DF91CF9108951F9341
:100EA000CF93DF93282F30E0F901E255FF4F849173
:100EB000F901E656FF4FD491F901EA57FF4FC4916B
:100EC000CC23C1F0162F81110E947A06EC2FF0E09E
:100ED000EE0FFF1FEE58FF4FA591B4919FB7F89406
:100EE000111104C08C91D095D82302C0EC91DE2B57
:100EF000DC939FBFDF91CF911F910895CF93DF9334
:100F000090E0FC01E656FF4F2491FC01EA57FF4FA9
:100F10008491882361F190E0880F991FFC01E859C2
:100F2000FF4FC591D491FC01EE58FF4FA591B491AC
:100F3000611109C09FB7F894888120958223888326
:100F4000EC912E230BC0623061F49FB7F894888136
:100F5000322F309583238883EC912E2B2C939FBFC7
:100F600006C08FB7F894E8812E2B28838FBFDF91BE
:100F7000CF9108951F93CF93DF93182FEB0161E07A
:100F80000E947E07209711F460E004C0CF3FD10596
:100F900039F461E0812FDF91CF911F910C944F07BD
:100FA000E12FF0E0E255FF4FE491E330F9F048F42F
:100FB000E130B9F0E230A1F584B5806284BDC8BDEE
:100FC00034C0E730E9F0E83019F1E43049F58091B8
:100FD0008000806280938000D0938B00C0938A0051
:100FE00024C084B5806884BDC7BD1FC080918000C7
:100FF000806880938000D0938900C093880015C0DA
:101000008091B00080688093B000C093B3000DC0A1
:101010008091B00080628093B000C093B40005C09E
:10102000C038D1050CF0B5CFAFCFDF91CF911F9174
:1010300008951F920F920FB60F9211242F933F9392
:101040008F939F93AF93BF9380916B0290916C02AB
:10105000A0916D02B0916E0230911C0323E0230F2A
:101060002D3720F40196A11DB11D05C026E8230FE0
:101070000296A11DB11D20931C0380936B029093D7
:101080006C02A0936D02B0936E0280911803909150
:101090001903A0911A03B0911B030196A11DB11D64
:1010A0008093180390931903A0931A03B0931B0322
:1010B000BF91AF919F918F913F912F910F900FBE54
:1010C0000F901F901895789484B5826084BD84B584
:1010D000816084BD85B5826085BD85B5816085BD33
:1010E00080916E00816080936E00109281008091EB
:1010F0008100826080938100809181008160809373
:101100008100809180008160809380008091B10097
:1011100084608093B1008091B00081608093B000C2
:1011200080917A00846080937A0080917A00826056
:1011300080937A0080917A00816080937A00809118
:101140007A00806880937A001092C10062E086E0A5
:101150000E947E0761E089E00E947E0761E08AE0EC
:101160000E947E0761E085E00E947E0760E084E0E7
:101170000E947E0760E083E00E947E0760E082E0DC
:101180000E947E0760E087E00E947E0762E086E0C2
:101190000E947E0761E089E00E947E0761E08AE0AC
:1011A0000E947E0761E085E00E947E0760E084E0A7
:1011B0000E947E0762E083E00E947E0762E082E098
:1011C0000E947E0760E087E00E947E0710927A000E
:1011D00080E685BF80E485BF83B7817F83BF83B707
:1011E000816083BF80E090E00E94410B80935702B2
:1011F000809157028F3F49F48FE3809357026091AB
:10120000570280E090E00E94490B81E090E00E944C
:10121000410B8093410280914102CFEFD0E0BE01AB
:10122000681B710989E00E94BA0782E090E00E9481
:10123000410B8093600280916002BE01681B7109BE
:101240008AE00E94BA0783E090E00E94410B8093FD
:101250005F0280915F02BE01681B710985E00E94F8
:10126000BA076FE372E084E090E00E94FA03809195
:101270003F0290914002019651F410924002109268
:101280003F026FE372E084E090E00E940E046DE3A1
:1012900072E086E090E00E94FA0380913D02909116
:1012A0003E02019651F410923E0210923D026DE30F
:1012B00072E086E090E00E940E046BE372E088E04A
:1012C00090E00E94FA0380913B0290913C020196CB
:1012D00051F410923C0210923B026BE372E088E002
:1012E00090E00E940E0465E672E08AE090E00E94C1
:1012F000FA038091650290916602019661F48AEF8B
:1013000090E0909366028093650265E672E08AE061
:1013100090E00E940E0429ED32E0309329012093E1
:101320002801809169008C7F816080936900E89A30
:1013300030932B0120932A0180916900837F846080
:1013400080936900E99A8AEA92E090932D01809354
:101350002C0180914A02806180934A028091470269
:1013600080618093470289B18093440280916D002F
:10137000806180936D008091680084608093680034
:1013800010926702109268021092690210926A022B
:10139000109258021092590210925A0210925B0257
:1013A0008091BC008A7B8093BC0060E082E10E9457
:1013B0004F0760E083E10E944F0786E00E94260706
:1013C0000197E1F4C091570210925202109251021B
:1013D0001092500210924F020E9477028CE890E027
:1013E00090934E0280934D0288E990E090934C02D6
:1013F00080934B02CC0FC093BA0019C010925202D6
:10140000109251021092500210924F020E947702E5
:101410008CE890E090934E0280934D0288E990E032
:1014200090934C0280934B028CE78093BA008EE439
:1014300092E0909354028093530285E992E0909356
:10144000560280935502E0917F02F091800282E083
:101450008083E0917B02F0917C021082E0917D021A
:10146000F0917E028FEC808310928702E0918302DC
:10147000F091840286E08083E0918102F091820203
:10148000808180618083E0918102F091820280817D
:1014900088608083E0918102F0918202808180687F
:1014A0008083E0918102F091820280818F7D808330
:1014B00082E591E00E94A3068EE591E00E94A306DA
:1014C00081E691E00E94A30686E00E94260701972C
:1014D00039F46091570270E080E090E040E105C08F
:1014E00040E16EE370E080E090E00E94B5068EE59A
:1014F00091E00E94A3068DE691E00E94A3064AE0D7
:1015000069E170E080E090E00E94B5068EE591E030
:101510000E94A306C1E08FB7F89440916B025091EE
:101520006C0260916D0270916E028FBF0091670234
:10153000109168022091690230916A0280916502DF
:1015400090916602401B510B620B730BA0E0B0E060
:1015500084179507A607B70700F580916702909159
:101560006802A0916902B0916A02892B8A2B8B2BA9
:10157000A1F080916402882381F08091630281113F
:101580000CC010926402C093630261E087E00E9485
:101590007E0760E087E00E944F0784E891E00E94A8
:1015A000A30680916102909162020E94F6068EE885
:1015B00091E00E94A3066091600270E080E090E0FC
:1015C0004AE00E94B50687E991E00E94A306609177
:1015D0005F0270E080E090E04AE00E94B5068FE98B
:1015E00091E00E94A30680915D0290915E020E94AC
:1015F000F60680915C02882321F087EA91E00E9440
:10160000A3068EE591E00E94A3060E94C60183CF47
:10161000EFE6F2E01382128288EE93E0A0E0B0E001
:1016200084839583A683B78322E331E031832083CB
:1016300025EC30E03587248724EC30E03787268797
:1016400020EC30E0318B208B21EC30E0338B228B8F
:1016500022EC30E0358B248B26EC30E0378B268B68
:10166000118E128E138E148EECE0F3E01382128230
:1016700084839583A683B78384E491E091838083F8
:101680000895F999FECF92BD81BDF89A992780B54A
:101690000895262FF999FECF1FBA92BD81BD20BDB6
:1016A0000FB6F894FA9AF99A0FBE01960895A1E23E
:1016B0001A2EAA1BBB1BFD010DC0AA1FBB1FEE1FCC
:1016C000FF1FA217B307E407F50720F0A21BB30B17
:1016D000E40BF50B661F771F881F991F1A9469F793
:1016E00060957095809590959B01AC01BD01CF01EF
:1016F0000895EE0FFF1F0590F491E02D099481E00D
:0C17000090E0F8940C94840BF894FFCF58
:10170C000102CC03000400050006000708091000C4
:10171C00110012AA13BB88AABB14C200C200C200DB
:10172C00C200C200C200C200C300C300C20000005D
:10173C0000005701C400EE00A4011F01FD001101BF
:10174C000000000039022E024B0202022602120295
:10175C0003025177696963205477697374000D0A29
:10176C0000416464726573733A2030780073697A4F
:10177C0065206F66207265676973746572206D6190
:10178C00703A2000456E636F6465723A2000204702
:10179C007265656E3A200020426C75653A20002017
:0E17AC00446966663A200020436C69636B0056
:00000001FF
